:1000000000000320D1010000390B0100F50A0100B6
:10001000F50A0100F50A0100F50A0100F50A0100E0
:10002000F50A0100F50A0100F50A0100390B01008B
:10003000390B0100F50A0100310001003500010013
:10004000390B0100390B0100390B0100390B01009C
:10005000390B0100390B0100390B0100390B01008C
:10006000390B0100390B0100390B0100390B01007C
:10007000390B0100390B0100390B0100390B01006C
:10008000390B0100390B0100390B0100390B01005C
:10009000390B0100390B0100390B0100390B01004C
:1000A0005D61000069610000390B0100390B01003E
:1000B000390B0100390B0100390B010075200100DB
:1000C000390B0100390B0100390B0100390B01001C
:1000D000390B0100390B0100390B0100390B01000C
:1000E000390B0100390B0100390B0100390B0100FC
:1000F000390B0100390B0100390B0100390B0100EC
:10010000390B0100390B0100390B0100390B0100DB
:10011000390B0100752B0100390B0100390B01006F
:10012000390B0100390B0100390B0100390B0100BB
:10013000390B0100390B0100390B0100390B0100AB
:10014000390B0100390B0100390B0100390B01009B
:10015000390B0100390B0100390B0100390B01008B
:10016000390B0100390B010075610000390B0100EA
:10017000390B0100390B0100390B0100390B01006B
:10018000390B0100390B0100390B0100390B01005B
:10019000390B0100390B010061280100390B010006
:1001A000390B0100390B0100390B0100816100009E
:1001B000390B0100390B0100390B0100390B01002B
:1001C000390B0100390B0100390B0100390B01001B
:1001D0005F4B4CF2205210B5DA814DF62812DA81CD
:1001E00000BF00BF10F0ACFC5A4B4FF030621A63F6
:1001F000594A9A63594ADA634FF0E0234FF4700288
:10020000C3F8882D03F5E823554A1A60554B9A78B0
:10021000110703D59A7842F008029A70524B53485E
:10022000AA221A70524BDA1C121AC11E22F00302C3
:10023000994288BF00224F4910F088FB4E4B4F482F
:10024000DA1C121AC11E22F00302994288BF002252
:10025000002116F045F84A494A484FF4E87210F078
:1002600075FB494B494A802103F8011B9342FBD19E
:100270004FF0E023434AC3F8082D454B8A221A70F9
:10028000A3F5805324225A70A0221A709A799207FB
:10029000FCD59A79D406FCD43E4A937903F00C033A
:1002A000082BFAD1304B60225A70DA78802AFCD1C0
:1002B000384B01221A715D225A719A799006FCD549
:1002C0009A795106FCD5234A33495164002191643F
:1002D000202119702F498B7903F00C030C2BFAD1D4
:1002E0002E4B53602E4A136913F4807303D153616C
:1002F0004FF4A85313614FF0E0232A4A5A610022B9
:100300009A6107221A61284AC3F8202D62B610F0BC
:1003100017FF234B5B69DA0705D5244810F004FF6B
:10032000234B244ADA61244B1B785B0609D5204C09
:10033000204BE2699A4204D11C4810F0F5FE0023DC
:10034000E36110F003FC16F007F910F0F7FAFEE78E
:100350000020054000800440823F04000100002B83
:100360000300008500D0074000E007403007FF1F72
:10037000D817FF1F20B40100002BFF1FD817FF1F45
:10038000000000000002FF1F00E400E064E400E061
:10039000005006400040064000000602C010070062
:1003A00000D003401FBF020000002020D3E00C69F2
:1003B00000E00340A5C3945A00F00740FFFFFFFF91
:1003C000FFFFFFFFFFFFFFFFFFFFFFFFFFFFFFFF3D
:1003D000FFFFFFFFFFFFFFFFFFFFFFFFFFFFFFFF2D
:1003E000FFFFFFFFFFFFFFFFFFFFFFFFFFFFFFFF1D
:1003F000FFFFFFFFFFFFFFFFFFFFFFFFFFFFFFFF0D
:10040000FFFFFFFFFFFFFFFFFFFFFFFFDEF9FFFF23
:100410000548064B1B1AD90F01EBA301491002D066
:10042000034B03B118477047D817FF1FD817FF1F9A
:100430000000000008B5054B1BB105490548AFF3A6
:100440000080BDE80840FFF7E3BF00BF00000000E8
:10045000D817FF1F18B401001E4B1A68D2E9001309
:1004600009781878537A92F808C0184201EA0C010A
:1004700027D0937A03F00303B9B943F0080399082E
:10048000013B91720D2B1BD8DFE803F00B07160719
:100490001A120B0B121A0716070BD368013BD36015
:1004A0007047D3680133D360704743F00403E4E737
:1004B000D368023BD3607047D3680233D360704780
:1004C0007047937A03F003030029D8D043F0040364
:1004D000D5E700BF481FFF1F704700BF1E4B5A687B
:1004E000D2E9001309781878537A92F808C01842B4
:1004F00001EA0C0127D0937A03F00303B9B943F062
:1005000008039908013B91720D2B1BD8DFE803F01B
:100510000B0716071A120B0B121A0716070BD368D4
:10052000013BD3607047D3680133D360704743F019
:100530000403E4E7D368023BD3607047D368023317
:10054000D36070477047937A03F003030029D8D033
:1005500043F00403D5E700BF481FFF1F1E4BDA68B6
:10056000D2E9001309781878537A92F808C0184233
:1005700001EA0C0127D0937A03F00303B9B943F0E1
:1005800008039908013B91720D2B1BD8DFE803F09B
:100590000B0716071A120B0B121A0716070BD36854
:1005A000013BD3607047D3680133D360704743F099
:1005B0000403E4E7D368023BD3607047D368023397
:1005C000D36070477047937A03F003030029D8D0B3
:1005D00043F00403D5E700BF481FFF1F1E4B1A69F5
:1005E000D2E9001309781878537A92F808C01842B3
:1005F00001EA0C0127D0937A03F00303B9B943F061
:1006000008039908013B91720D2B1BD8DFE803F01A
:100610000B0716071A120B0B121A0716070BD368D3
:10062000013BD3607047D3680133D360704743F018
:100630000403E4E7D368023BD3607047D368023316
:10064000D36070477047937A03F003030029D8D032
:1006500043F00403D5E700BF481FFF1F1E4B9A68F5
:10066000D2E9001309781878537A92F808C0184232
:1006700001EA0C0127D0937A03F00303B9B943F0E0
:1006800008039908013B91720D2B1BD8DFE803F09A
:100690000B0716071A120B0B121A0716070BD36853
:1006A000013BD3607047D3680133D360704743F098
:1006B0000403E4E7D368023BD3607047D368023396
:1006C000D36070477047937A03F003030029D8D0B2
:1006D00043F00403D5E700BF481FFF1F1E4B5A69B4
:1006E000D2E9001309781878537A92F808C01842B2
:1006F00001EA0C0127D0937A03F00303B9B943F060
:1007000008039908013B91720D2B1BD8DFE803F019
:100710000B0716071A120B0B121A0716070BD368D2
:10072000013BD3607047D3680133D360704743F017
:100730000403E4E7D368023BD3607047D368023315
:10074000D36070477047937A03F003030029D8D031
:1007500043F00403D5E700BF481FFF1F1E4B9A69F3
:10076000D2E9001309781878537A92F808C0184231
:1007700001EA0C0127D0937A03F00303B9B943F0DF
:1007800008039908013B91720D2B1BD8DFE803F099
:100790000B0716071A120B0B121A0716070BD36852
:1007A000013BD3607047D3680133D360704743F097
:1007B0000403E4E7D368023BD3607047D368023395
:1007C000D36070477047937A03F003030029D8D0B1
:1007D00043F00403D5E700BF481FFF1F1E4BDA6933
:1007E000D2E9001309781878537A92F808C01842B1
:1007F00001EA0C0127D0937A03F00303B9B943F05F
:1008000008039908013B91720D2B1BD8DFE803F018
:100810000B0716071A120B0B121A0716070BD368D1
:10082000013BD3607047D3680133D360704743F016
:100830000403E4E7D368023BD3607047D368023314
:10084000D36070477047937A03F003030029D8D030
:1008500043F00403D5E700BF481FFF1F1E4B1A6A71
:10086000D2E9001309781878537A92F808C0184230
:1008700001EA0C0127D0937A03F00303B9B943F0DE
:1008800008039908013B91720D2B1BD8DFE803F098
:100890000B0716071A120B0B121A0716070BD36851
:1008A000013BD3607047D3680133D360704743F096
:1008B0000403E4E7D368023BD3607047D368023394
:1008C000D36070477047937A03F003030029D8D0B0
:1008D00043F00403D5E700BF481FFF1F1E4B5A6AB1
:1008E000D2E9001309781878537A92F808C01842B0
:1008F00001EA0C0127D0937A03F00303B9B943F05E
:1009000008039908013B91720D2B1BD8DFE803F017
:100910000B0716071A120B0B121A0716070BD368D0
:10092000013BD3607047D3680133D360704743F015
:100930000403E4E7D368023BD3607047D368023313
:10094000D36070477047937A03F003030029D8D02F
:1009500043F00403D5E700BF481FFF1F1E4B9A6AF0
:10096000D2E9001309781878537A92F808C018422F
:1009700001EA0C0127D0937A03F00303B9B943F0DD
:1009800008039908013B91720D2B1BD8DFE803F097
:100990000B0716071A120B0B121A0716070BD36850
:1009A000013BD3607047D3680133D360704743F095
:1009B0000403E4E7D368023BD3607047D368023393
:1009C000D36070477047937A03F003030029D8D0AF
:1009D00043F00403D5E700BF481FFF1F1E4BDA6A30
:1009E000D2E9001309781878537A92F808C01842AF
:1009F00001EA0C0127D0937A03F00303B9B943F05D
:100A000008039908013B91720D2B1BD8DFE803F016
:100A10000B0716071A120B0B121A0716070BD368CF
:100A2000013BD3607047D3680133D360704743F014
:100A30000403E4E7D368023BD3607047D368023312
:100A4000D36070477047937A03F003030029D8D02E
:100A500043F00403D5E700BF481FFF1F1E4B1A6B6E
:100A6000D2E9001309781878537A92F808C018422E
:100A700001EA0C0127D0937A03F00303B9B943F0DC
:100A800008039908013B91720D2B1BD8DFE803F096
:100A90000B0716071A120B0B121A0716070BD3684F
:100AA000013BD3607047D3680133D360704743F094
:100AB0000403E4E7D368023BD3607047D368023392
:100AC000D36070477047937A03F003030029D8D0AE
:100AD00043F00403D5E700BF481FFF1F1E4B5A6FAA
:100AE000D2E9001309781878537A92F808C01842AE
:100AF00001EA0C0127D0937A03F00303B9B943F05C
:100B000008039908013B91720D2B1BD8DFE803F015
:100B10000B0716071A120B0B121A0716070BD368CE
:100B2000013BD3607047D3680133D360704743F013
:100B30000403E4E7D368023BD3607047D368023311
:100B4000D36070477047937A03F003030029D8D02D
:100B500043F00403D5E700BF481FFF1F1E4B9A6FE9
:100B6000D2E9001309781878537A92F808C018422D
:100B700001EA0C0127D0937A03F00303B9B943F0DB
:100B800008039908013B91720D2B1BD8DFE803F095
:100B90000B0716071A120B0B121A0716070BD3684E
:100BA000013BD3607047D3680133D360704743F093
:100BB0000403E4E7D368023BD3607047D368023391
:100BC000D36070477047937A03F003030029D8D0AD
:100BD00043F00403D5E700BF481FFF1F1E4BDA6F29
:100BE000D2E9001309781878537A92F808C01842AD
:100BF00001EA0C0127D0937A03F00303B9B943F05B
:100C000008039908013B91720D2B1BD8DFE803F014
:100C10000B0716071A120B0B121A0716070BD368CD
:100C2000013BD3607047D3680133D360704743F012
:100C30000403E4E7D368023BD3607047D368023310
:100C4000D36070477047937A03F003030029D8D02C
:100C500043F00403D5E700BF481FFF1F1E4BD3F826
:100C60008020D2E9001309781878537A92F808C0E6
:100C7000184201EA0C0127D0937A03F00303B9B9B3
:100C800043F008039908013B91720D2B1BD8DFE854
:100C900003F00B0716071A120B0B121A0716070B95
:100CA000D368013BD3607047D3680133D36070478A
:100CB00043F00403E4E7D368023BD3607047D36892
:100CC0000233D36070477047937A03F0030300291F
:100CD000D8D043F00403D5E7481FFF1F1E4BD3F8BD
:100CE0008420D2E9001309781878537A92F808C062
:100CF000184201EA0C0127D0937A03F00303B9B933
:100D000043F008039908013B91720D2B1BD8DFE8D3
:100D100003F00B0716071A120B0B121A0716070B14
:100D2000D368013BD3607047D3680133D360704709
:100D300043F00403E4E7D368023BD3607047D36811
:100D40000233D36070477047937A03F0030300299E
:100D5000D8D043F00403D5E7481FFF1F1E4BD3F83C
:100D60008820D2E9001309781878537A92F808C0DD
:100D7000184201EA0C0127D0937A03F00303B9B9B2
:100D800043F008039908013B91720D2B1BD8DFE853
:100D900003F00B0716071A120B0B121A0716070B94
:100DA000D368013BD3607047D3680133D360704789
:100DB00043F00403E4E7D368023BD3607047D36891
:100DC0000233D36070477047937A03F0030300291E
:100DD000D8D043F00403D5E7481FFF1F1E4BD3F8BC
:100DE0008C20D2E9001309781878537A92F808C059
:100DF000184201EA0C0127D0937A03F00303B9B932
:100E000043F008039908013B91720D2B1BD8DFE8D2
:100E100003F00B0716071A120B0B121A0716070B13
:100E2000D368013BD3607047D3680133D360704708
:100E300043F00403E4E7D368023BD3607047D36810
:100E40000233D36070477047937A03F0030300299D
:100E5000D8D043F00403D5E7481FFF1F1E4BD3F83B
:100E60009020D2E9001309781878537A92F808C0D4
:100E7000184201EA0C0127D0937A03F00303B9B9B1
:100E800043F008039908013B91720D2B1BD8DFE852
:100E900003F00B0716071A120B0B121A0716070B93
:100EA000D368013BD3607047D3680133D360704788
:100EB00043F00403E4E7D368023BD3607047D36890
:100EC0000233D36070477047937A03F0030300291D
:100ED000D8D043F00403D5E7481FFF1F1E4BD3F8BB
:100EE0009420D2E9001309781878537A92F808C050
:100EF000184201EA0C0127D0937A03F00303B9B931
:100F000043F008039908013B91720D2B1BD8DFE8D1
:100F100003F00B0716071A120B0B121A0716070B12
:100F2000D368013BD3607047D3680133D360704707
:100F300043F00403E4E7D368023BD3607047D3680F
:100F40000233D36070477047937A03F0030300299C
:100F5000D8D043F00403D5E7481FFF1F1E4BD3F83A
:100F60009820D2E9001309781878537A92F808C0CB
:100F7000184201EA0C0127D0937A03F00303B9B9B0
:100F800043F008039908013B91720D2B1BD8DFE851
:100F900003F00B0716071A120B0B121A0716070B92
:100FA000D368013BD3607047D3680133D360704787
:100FB00043F00403E4E7D368023BD3607047D3688F
:100FC0000233D36070477047937A03F0030300291C
:100FD000D8D043F00403D5E7481FFF1F1E4BD3F8BA
:100FE0009C20D2E9001309781878537A92F808C047
:100FF000184201EA0C0127D0937A03F00303B9B930
:1010000043F008039908013B91720D2B1BD8DFE8D0
:1010100003F00B0716071A120B0B121A0716070B11
:10102000D368013BD3607047D3680133D360704706
:1010300043F00403E4E7D368023BD3607047D3680E
:101040000233D36070477047937A03F0030300299B
:10105000D8D043F00403D5E7481FFF1F1E4BD3F839
:10106000A020D2E9001309781878537A92F808C0C2
:10107000184201EA0C0127D0937A03F00303B9B9AF
:1010800043F008039908013B91720D2B1BD8DFE850
:1010900003F00B0716071A120B0B121A0716070B91
:1010A000D368013BD3607047D3680133D360704786
:1010B00043F00403E4E7D368023BD3607047D3688E
:1010C0000233D36070477047937A03F0030300291B
:1010D000D8D043F00403D5E7481FFF1F1E4BD3F8B9
:1010E000A420D2E9001309781878537A92F808C03E
:1010F000184201EA0C0127D0937A03F00303B9B92F
:1011000043F008039908013B91720D2B1BD8DFE8CF
:1011100003F00B0716071A120B0B121A0716070B10
:10112000D368013BD3607047D3680133D360704705
:1011300043F00403E4E7D368023BD3607047D3680D
:101140000233D36070477047937A03F0030300299A
:10115000D8D043F00403D5E7481FFF1F1E4BD3F838
:10116000A820D2E9001309781878537A92F808C0B9
:10117000184201EA0C0127D0937A03F00303B9B9AE
:1011800043F008039908013B91720D2B1BD8DFE84F
:1011900003F00B0716071A120B0B121A0716070B90
:1011A000D368013BD3607047D3680133D360704785
:1011B00043F00403E4E7D368023BD3607047D3688D
:1011C0000233D36070477047937A03F0030300291A
:1011D000D8D043F00403D5E7481FFF1F1E4BD3F8B8
:1011E000AC20D2E9001309781878537A92F808C035
:1011F000184201EA0C0127D0937A03F00303B9B92E
:1012000043F008039908013B91720D2B1BD8DFE8CE
:1012100003F00B0716071A120B0B121A0716070B0F
:10122000D368013BD3607047D3680133D360704704
:1012300043F00403E4E7D368023BD3607047D3680C
:101240000233D36070477047937A03F00303002999
:10125000D8D043F00403D5E7481FFF1F1E4BD3F837
:10126000B020D2E9001309781878537A92F808C0B0
:10127000184201EA0C0127D0937A03F00303B9B9AD
:1012800043F008039908013B91720D2B1BD8DFE84E
:1012900003F00B0716071A120B0B121A0716070B8F
:1012A000D368013BD3607047D3680133D360704784
:1012B00043F00403E4E7D368023BD3607047D3688C
:1012C0000233D36070477047937A03F00303002919
:1012D000D8D043F00403D5E7481FFF1F1E4BD3F8B7
:1012E000B420D2E9001309781878537A92F808C02C
:1012F000184201EA0C0127D0937A03F00303B9B92D
:1013000043F008039908013B91720D2B1BD8DFE8CD
:1013100003F00B0716071A120B0B121A0716070B0E
:10132000D368013BD3607047D3680133D360704703
:1013300043F00403E4E7D368023BD3607047D3680B
:101340000233D36070477047937A03F00303002998
:10135000D8D043F00403D5E7481FFF1F1E4BD3F836
:10136000B820D2E9001309781878537A92F808C0A7
:10137000184201EA0C0127D0937A03F00303B9B9AC
:1013800043F008039908013B91720D2B1BD8DFE84D
:1013900003F00B0716071A120B0B121A0716070B8E
:1013A000D368013BD3607047D3680133D360704783
:1013B00043F00403E4E7D368023BD3607047D3688B
:1013C0000233D36070477047937A03F00303002918
:1013D000D8D043F00403D5E7481FFF1F1E4BD3F8B6
:1013E000BC20D2E9001309781878537A92F808C023
:1013F000184201EA0C0127D0937A03F00303B9B92C
:1014000043F008039908013B91720D2B1BD8DFE8CC
:1014100003F00B0716071A120B0B121A0716070B0D
:10142000D368013BD3607047D3680133D360704702
:1014300043F00403E4E7D368023BD3607047D3680A
:101440000233D36070477047937A03F00303002997
:10145000D8D043F00403D5E7481FFF1F1E4BD3F835
:10146000C020D2E9001309781878537A92F808C09E
:10147000184201EA0C0127D0937A03F00303B9B9AB
:1014800043F008039908013B91720D2B1BD8DFE84C
:1014900003F00B0716071A120B0B121A0716070B8D
:1014A000D368013BD3607047D3680133D360704782
:1014B00043F00403E4E7D368023BD3607047D3688A
:1014C0000233D36070477047937A03F00303002917
:1014D000D8D043F00403D5E7481FFF1F1E4BD3F8B5
:1014E000C420D2E9001309781878537A92F808C01A
:1014F000184201EA0C0127D0937A03F00303B9B92B
:1015000043F008039908013B91720D2B1BD8DFE8CB
:1015100003F00B0716071A120B0B121A0716070B0C
:10152000D368013BD3607047D3680133D360704701
:1015300043F00403E4E7D368023BD3607047D36809
:101540000233D36070477047937A03F00303002996
:10155000D8D043F00403D5E7481FFF1F1E4BD3F834
:10156000C820D2E9001309781878537A92F808C095
:10157000184201EA0C0127D0937A03F00303B9B9AA
:1015800043F008039908013B91720D2B1BD8DFE84B
:1015900003F00B0716071A120B0B121A0716070B8C
:1015A000D368013BD3607047D3680133D360704781
:1015B00043F00403E4E7D368023BD3607047D36889
:1015C0000233D36070477047937A03F00303002916
:1015D000D8D043F00403D5E7481FFF1F1E4BD3F8B4
:1015E000CC20D2E9001309781878537A92F808C011
:1015F000184201EA0C0127D0937A03F00303B9B92A
:1016000043F008039908013B91720D2B1BD8DFE8CA
:1016100003F00B0716071A120B0B121A0716070B0B
:10162000D368013BD3607047D3680133D360704700
:1016300043F00403E4E7D368023BD3607047D36808
:101640000233D36070477047937A03F00303002995
:10165000D8D043F00403D5E7481FFF1F1E4BD3F833
:10166000D020D2E9001309781878537A92F808C08C
:10167000184201EA0C0127D0937A03F00303B9B9A9
:1016800043F008039908013B91720D2B1BD8DFE84A
:1016900003F00B0716071A120B0B121A0716070B8B
:1016A000D368013BD3607047D3680133D360704780
:1016B00043F00403E4E7D368023BD3607047D36888
:1016C0000233D36070477047937A03F00303002915
:1016D000D8D043F00403D5E7481FFF1F1E4BD3F8B3
:1016E000D420D2E9001309781878537A92F808C008
:1016F000184201EA0C0127D0937A03F00303B9B929
:1017000043F008039908013B91720D2B1BD8DFE8C9
:1017100003F00B0716071A120B0B121A0716070B0A
:10172000D368013BD3607047D3680133D3607047FF
:1017300043F00403E4E7D368023BD3607047D36807
:101740000233D36070477047937A03F00303002994
:10175000D8D043F00403D5E7481FFF1F1E4BD3F832
:10176000D820D2E9001309781878537A92F808C083
:10177000184201EA0C0127D0937A03F00303B9B9A8
:1017800043F008039908013B91720D2B1BD8DFE849
:1017900003F00B0716071A120B0B121A0716070B8A
:1017A000D368013BD3607047D3680133D36070477F
:1017B00043F00403E4E7D368023BD3607047D36887
:1017C0000233D36070477047937A03F00303002914
:1017D000D8D043F00403D5E7481FFF1F1E4BD3F8B2
:1017E000DC20D2E9001309781878537A92F808C0FF
:1017F000184201EA0C0127D0937A03F00303B9B928
:1018000043F008039908013B91720D2B1BD8DFE8C8
:1018100003F00B0716071A120B0B121A0716070B09
:10182000D368013BD3607047D3680133D3607047FE
:1018300043F00403E4E7D368023BD3607047D36806
:101840000233D36070477047937A03F00303002993
:10185000D8D043F00403D5E7481FFF1F1E4BD3F831
:10186000E020D2E9001309781878537A92F808C07A
:10187000184201EA0C0127D0937A03F00303B9B9A7
:1018800043F008039908013B91720D2B1BD8DFE848
:1018900003F00B0716071A120B0B121A0716070B89
:1018A000D368013BD3607047D3680133D36070477E
:1018B00043F00403E4E7D368023BD3607047D36886
:1018C0000233D36070477047937A03F00303002913
:1018D000D8D043F00403D5E7481FFF1F1E4BD3F8B1
:1018E000E420D2E9001309781878537A92F808C0F6
:1018F000184201EA0C0127D0937A03F00303B9B927
:1019000043F008039908013B91720D2B1BD8DFE8C7
:1019100003F00B0716071A120B0B121A0716070B08
:10192000D368013BD3607047D3680133D3607047FD
:1019300043F00403E4E7D368023BD3607047D36805
:101940000233D36070477047937A03F00303002992
:10195000D8D043F00403D5E7481FFF1F1E4BD3F830
:10196000E820D2E9001309781878537A92F808C071
:10197000184201EA0C0127D0937A03F00303B9B9A6
:1019800043F008039908013B91720D2B1BD8DFE847
:1019900003F00B0716071A120B0B121A0716070B88
:1019A000D368013BD3607047D3680133D36070477D
:1019B00043F00403E4E7D368023BD3607047D36885
:1019C0000233D36070477047937A03F00303002912
:1019D000D8D043F00403D5E7481FFF1F1E4B5A6BB6
:1019E000D2E9001309781878537A92F808C018429F
:1019F00001EA0C0127D0937A03F00303B9B943F04D
:101A000008039908013B91720D2B1BD8DFE803F006
:101A10000B0716071A120B0B121A0716070BD368BF
:101A2000013BD3607047D3680133D360704743F004
:101A30000403E4E7D368023BD3607047D368023302
:101A4000D36070477047937A03F003030029D8D01E
:101A500043F00403D5E700BF481FFF1F1E4B9A6BDE
:101A6000D2E9001309781878537A92F808C018421E
:101A700001EA0C0127D0937A03F00303B9B943F0CC
:101A800008039908013B91720D2B1BD8DFE803F086
:101A90000B0716071A120B0B121A0716070BD3683F
:101AA000013BD3607047D3680133D360704743F084
:101AB0000403E4E7D368023BD3607047D368023382
:101AC000D36070477047937A03F003030029D8D09E
:101AD00043F00403D5E700BF481FFF1F1E4BDA6B1E
:101AE000D2E9001309781878537A92F808C018429E
:101AF00001EA0C0127D0937A03F00303B9B943F04C
:101B000008039908013B91720D2B1BD8DFE803F005
:101B10000B0716071A120B0B121A0716070BD368BE
:101B2000013BD3607047D3680133D360704743F003
:101B30000403E4E7D368023BD3607047D368023301
:101B4000D36070477047937A03F003030029D8D01D
:101B500043F00403D5E700BF481FFF1F1E4B1A6C5C
:101B6000D2E9001309781878537A92F808C018421D
:101B700001EA0C0127D0937A03F00303B9B943F0CB
:101B800008039908013B91720D2B1BD8DFE803F085
:101B90000B0716071A120B0B121A0716070BD3683E
:101BA000013BD3607047D3680133D360704743F083
:101BB0000403E4E7D368023BD3607047D368023381
:101BC000D36070477047937A03F003030029D8D09D
:101BD00043F00403D5E700BF481FFF1F1E4B5A6C9C
:101BE000D2E9001309781878537A92F808C018429D
:101BF00001EA0C0127D0937A03F00303B9B943F04B
:101C000008039908013B91720D2B1BD8DFE803F004
:101C10000B0716071A120B0B121A0716070BD368BD
:101C2000013BD3607047D3680133D360704743F002
:101C30000403E4E7D368023BD3607047D368023300
:101C4000D36070477047937A03F003030029D8D01C
:101C500043F00403D5E700BF481FFF1F1E4B9A6CDB
:101C6000D2E9001309781878537A92F808C018421C
:101C700001EA0C0127D0937A03F00303B9B943F0CA
:101C800008039908013B91720D2B1BD8DFE803F084
:101C90000B0716071A120B0B121A0716070BD3683D
:101CA000013BD3607047D3680133D360704743F082
:101CB0000403E4E7D368023BD3607047D368023380
:101CC000D36070477047937A03F003030029D8D09C
:101CD00043F00403D5E700BF481FFF1F1E4BDA6C1B
:101CE000D2E9001309781878537A92F808C018429C
:101CF00001EA0C0127D0937A03F00303B9B943F04A
:101D000008039908013B91720D2B1BD8DFE803F003
:101D10000B0716071A120B0B121A0716070BD368BC
:101D2000013BD3607047D3680133D360704743F001
:101D30000403E4E7D368023BD3607047D3680233FF
:101D4000D36070477047937A03F003030029D8D01B
:101D500043F00403D5E700BF481FFF1F1E4B1A6D59
:101D6000D2E9001309781878537A92F808C018421B
:101D700001EA0C0127D0937A03F00303B9B943F0C9
:101D800008039908013B91720D2B1BD8DFE803F083
:101D90000B0716071A120B0B121A0716070BD3683C
:101DA000013BD3607047D3680133D360704743F081
:101DB0000403E4E7D368023BD3607047D36802337F
:101DC000D36070477047937A03F003030029D8D09B
:101DD00043F00403D5E700BF481FFF1F1E4B5A6D99
:101DE000D2E9001309781878537A92F808C018429B
:101DF00001EA0C0127D0937A03F00303B9B943F049
:101E000008039908013B91720D2B1BD8DFE803F002
:101E10000B0716071A120B0B121A0716070BD368BB
:101E2000013BD3607047D3680133D360704743F000
:101E30000403E4E7D368023BD3607047D3680233FE
:101E4000D36070477047937A03F003030029D8D01A
:101E500043F00403D5E700BF481FFF1F1E4B9A6DD8
:101E6000D2E9001309781878537A92F808C018421A
:101E700001EA0C0127D0937A03F00303B9B943F0C8
:101E800008039908013B91720D2B1BD8DFE803F082
:101E90000B0716071A120B0B121A0716070BD3683B
:101EA000013BD3607047D3680133D360704743F080
:101EB0000403E4E7D368023BD3607047D36802337E
:101EC000D36070477047937A03F003030029D8D09A
:101ED00043F00403D5E700BF481FFF1F1E4BDA6D18
:101EE000D2E9001309781878537A92F808C018429A
:101EF00001EA0C0127D0937A03F00303B9B943F048
:101F000008039908013B91720D2B1BD8DFE803F001
:101F10000B0716071A120B0B121A0716070BD368BA
:101F2000013BD3607047D3680133D360704743F0FF
:101F30000403E4E7D368023BD3607047D3680233FD
:101F4000D36070477047937A03F003030029D8D019
:101F500043F00403D5E700BF481FFF1F1E4B1A6E56
:101F6000D2E9001309781878537A92F808C0184219
:101F700001EA0C0127D0937A03F00303B9B943F0C7
:101F800008039908013B91720D2B1BD8DFE803F081
:101F90000B0716071A120B0B121A0716070BD3683A
:101FA000013BD3607047D3680133D360704743F07F
:101FB0000403E4E7D368023BD3607047D36802337D
:101FC000D36070477047937A03F003030029D8D099
:101FD00043F00403D5E700BF481FFF1F1E4B5A6E96
:101FE000D2E9001309781878537A92F808C0184299
:101FF00001EA0C0127D0937A03F00303B9B943F047
:1020000008039908013B91720D2B1BD8DFE803F000
:102010000B0716071A120B0B121A0716070BD368B9
:10202000013BD3607047D3680133D360704743F0FE
:102030000403E4E7D368023BD3607047D3680233FC
:10204000D36070477047937A03F003030029D8D018
:1020500043F00403D5E700BF481FFF1F1E4B9A6ED5
:10206000D2E9001309781878537A92F808C0184218
:1020700001EA0C0127D0937A03F00303B9B943F0C6
:1020800008039908013B91720D2B1BD8DFE803F080
:102090000B0716071A120B0B121A0716070BD36839
:1020A000013BD3607047D3680133D360704743F07E
:1020B0000403E4E7D368023BD3607047D36802337C
:1020C000D36070477047937A03F003030029D8D098
:1020D00043F00403D5E700BF481FFF1F1E4BDA6E15
:1020E000D2E9001309781878537A92F808C0184298
:1020F00001EA0C0127D0937A03F00303B9B943F046
:1021000008039908013B91720D2B1BD8DFE803F0FF
:102110000B0716071A120B0B121A0716070BD368B8
:10212000013BD3607047D3680133D360704743F0FD
:102130000403E4E7D368023BD3607047D3680233FB
:10214000D36070477047937A03F003030029D8D017
:1021500043F00403D5E700BF481FFF1F1E4B1A6F53
:10216000D2E9001309781878537A92F808C0184217
:1021700001EA0C0127D0937A03F00303B9B943F0C5
:1021800008039908013B91720D2B1BD8DFE803F07F
:102190000B0716071A120B0B121A0716070BD36838
:1021A000013BD3607047D3680133D360704743F07D
:1021B0000403E4E7D368023BD3607047D36802337B
:1021C000D36070477047937A03F003030029D8D097
:1021D00043F00403D5E700BF481FFF1F1E4BD3F891
:1021E000EC20D2E9001309781878537A92F808C0E5
:1021F000184201EA0C0127D0937A03F00303B9B91E
:1022000043F008039908013B91720D2B1BD8DFE8BE
:1022100003F00B0716071A120B0B121A0716070BFF
:10222000D368013BD3607047D3680133D3607047F4
:1022300043F00403E4E7D368023BD3607047D368FC
:102240000233D36070477047937A03F00303002989
:10225000D8D043F00403D5E7481FFF1F10B50B4645
:102260003B2800F2CE82DFE810F0C302B902B002D0
:10227000A7029E0295028C0283027A027102680212
:102280005F0256024D0244023B0232022902C9019A
:10229000C001B701AE01A5019C0193018A01810132
:1022A00078016F0166015D0154014A014001360168
:1022B0002C01220118010E010401FA00F000E600D1
:1022C000DC00D200C800BE00B400AA00A000960046
:1022D0008C00820078006E0064005A0050004600B6
:1022E0003C00CB4CCB49C4F8EC3004223B200EF030
:1022F000A7FE012010BDC64CC749C4F8E83004222F
:102300003A200EF09DFE012010BDC14CC349C4F817
:10231000E430042239200EF093FE012010BDBC4CA5
:10232000BF49C4F8E030042238200EF089FE0120B5
:1023300010BDB74CBB49C4F8DC30042237200EF086
:102340007FFE012010BDB24CB749C4F8D83004223A
:1023500036200EF075FE012010BDAD4CB349C4F817
:10236000D430042235200EF06BFE012010BDA84CA5
:10237000AF49C4F8D030042234200EF061FE0120B1
:1023800010BDA34CAB49C4F8CC30042233200EF06E
:1023900057FE012010BD9E4CA749C4F8C830042246
:1023A00032200EF04DFE012010BD994CA349C4F817
:1023B000C430042231200EF043FE012010BD944CA5
:1023C0009F49C4F8C030042230200EF039FE0120AD
:1023D00010BD8F4C9B49C4F8BC3004222F200EF056
:1023E0002FFE012010BD8A4C9749C4F8B830042252
:1023F0002E200EF025FE012010BD854C9349C4F817
:10240000B43004222D200EF01BFE012010BD804CA4
:102410008F49C4F8B03004222C200EF011FE0120A8
:1024200010BD7B4C8B49C4F8AC3004222B200EF03D
:1024300007FE012010BD764C8749C4F8A83004225D
:102440002A200EF0FDFD012010BD714C8349C4F817
:10245000A430042229200EF0F3FD012010BD6C4CA5
:102460007F49C4F8A030042228200EF0E9FD0120A5
:1024700010BD674C7B49C4F89C30042227200EF025
:10248000DFFD012010BD624C7749C4F8983004226A
:1024900026200EF0D5FD012010BD5D4C7349C4F817
:1024A0009430042225200EF0CBFD012010BD584CA5
:1024B0006F49C4F89030042224200EF0C1FD0120A1
:1024C00010BD534C6B49C4F88C30042223200EF00D
:1024D000B7FD012010BD4E4C6749C4F88830042276
:1024E00022200EF0ADFD012010BD494C6349C4F817
:1024F0008430042221200EF0A3FD012010BD444CA5
:102500005F49C4F88030042220200EF099FD01209C
:1025100010BD3F4C5B49E36704221F200EF090FD85
:10252000012010BD3A4C5849A36704221E200EF02A
:1025300087FD012010BD364C5449636704221D20DD
:102540000EF07EFD012010BD314C5149236704225D
:102550001C200EF075FD012010BD2D4C4D49E36689
:1025600004221B200EF06CFD012010BD284C4A49AE
:10257000A36604221A200EF063FD012010BD244C36
:1025800046496366042219200EF05AFD012010BD51
:102590001F4C43492366042218200EF051FD0120F0
:1025A00010BD1B4C3F49E365042217200EF048FD87
:1025B000012010BD164C3C49A365042216200EF0E4
:1025C0003FFD012010BD124C3849636504221520DF
:1025D0000EF036FD012010BD0D4C35492365042257
:1025E00014200EF02DFD012010BD094C3149E3648B
:1025F000042213200EF024FD012010BD044C2E49AE
:10260000A364042212200EF01BFD012010BD00BFA8
:10261000481FFF1FDD2100005D190000DD180000CC
:102620005D180000DD1700005D170000DD160000DA
:102630005D160000DD1500005D150000DD140000D2
:102640005D140000DD1300005D130000DD120000CA
:102650005D120000DD1100005D110000DD100000C2
:102660005D100000DD0F00005D0F0000DD0E0000BA
:102670005D0E0000DD0D00005D0D0000DD0C0000B2
:102680005D0C0000DD0B00005D0B0000DD0A0000AA
:102690005D210000DD2000005D200000DD1F000046
:1026A0005D1F0000DD1E00005D1E0000DD1D00003E
:1026B0005D1D0000DD1C00005D1C0000524C5349F4
:1026C0006364042211200EF0BBFC012010BD4E4CAF
:1026D0004F492364042210200EF0B2FC012010BDEB
:1026E000494C4C49E36304220F200EF0A9FC012061
:1026F00010BD454C4849A36304220E200EF0A0FCF7
:10270000012010BD404C4549636304220D200EF0AA
:1027100097FC012010BD3C4C4149236304220C204E
:102720000EF08EFC012010BD374C3E49E3620422BE
:102730000B200EF085FC012010BD334C3A49A362FA
:1027400004220A200EF07CFC012010BD2E4C3749DB
:102750006362042209200EF073FC012010BD2A4C94
:1027600033492362042208200EF06AFC012010BDC8
:10277000254C3049E361042207200EF061FC012062
:1027800010BD214C2C49A361042206200EF058FCF8
:10279000012010BD1C4C29496361042205200EF064
:1027A0004FFC012010BD184C25492361042210461E
:1027B0000EF046FC012010BD134C2249E3600422B8
:1027C00003200EF03DFC012010BD0F4C1E49A360FC
:1027D000042202200EF034FC012010BD04460A48F9
:1027E0001A494360042201200EF02AFC204610BD45
:1027F000054C17492360042200200EF021FC012023
:1028000010BD002010BD00BF481FFF1FDD1B0000D2
:102810005D1B0000DD1A00005D1A0000DD190000DC
:102820005D0A0000DD0900005D090000DD08000010
:102830005D080000DD0700005D070000DD06000008
:10284000DD0500005D0500005D060000DD04000000
:102850005904000070B50646D24B46F8043B0446C6
:10286000D14D022126200EF045FF022127200EF037
:1028700041FFD5F83821D5F8301102F50070A0607D
:1028800040F2011001F50073A08100206360206117
:10289000C64B013BFDD191F8003292F8002203F0C3
:1028A0000103D00748BF43F00203A373314626203B
:1028B000FFF7D4FC314620752720FFF7CFFC237D9E
:1028C00018442075022124200EF014FF0221252037
:1028D0000EF010FFD5F82821D5F8201102F5007070
:1028E000E06140F2011001F5007320840020A36133
:1028F00004F11806AD4B6062013BFDD191F8003246
:1029000092F8002203F00103D10748BF43F002030D
:1029100084F8223031462420FFF7A0FC314684F8A9
:1029200028002520FFF79AFC94F82830184484F8F2
:102930002800022121200EF0DDFE022122200EF0CF
:10294000D9FED5F81021D5F8081102F500702063E2
:1029500040F2011001F50073A0860020E36204F14B
:102960002C06924BA063013BFDD191F8003292F806
:10297000002203F00103D20748BF43F0020384F8AA
:10298000363031462120FFF769FC314684F83C009F
:102990002220FFF763FC94F83C30184484F83C0094
:1029A000022135200EF0A6FE022128200EF0A2FE04
:1029B000D5F84021D5F8A81102F50070606440F206
:1029C000011001F50073A4F848000020236404F10D
:1029D0004006764BE064013BFDD191F8003292F85D
:1029E000002203F00103D00748BF43F0020384F83C
:1029F0004A3031463520FFF731FC314684F850002B
:102A00002820FFF72BFC94F85030184484F850002D
:102A1000022134200EF06EFE022129200EF06AFE03
:102A2000D5F84821D5F8A01102F50070A06540F254
:102A3000011001F50073A4F85C000020636504F147
:102A400054065A4B2066013BFDD191F8003292F8B2
:102A5000002203F00103D10748BF43F0020384F8CA
:102A60005E3031463420FFF7F9FB314684F86400CC
:102A70002920FFF7F3FB94F86430184484F86400CD
:102A8000022139200EF036FE022131200EF032FEF6
:102A9000D5F88821D5F8C81102F50070E06640F23B
:102AA000011001F50073A4F870000020A36604F182
:102AB00068063E4B6067013BFDD191F8003292F809
:102AC000002203F00103D20748BF43F0020384F859
:102AD000723031463920FFF7C1FB314684F8780067
:102AE0003120FFF7BBFB94F87830184484F8780065
:102AF000022136200EF0FEFD02212D200EF0FAFDFF
:102B0000D5F86821D5F8B01102F50070C4F880003E
:102B100040F2011001F50073A4F884000020E3677F
:102B200004F17C06214BC4F88800013BFDD191F8EB
:102B3000003292F8002203F00103D00748BF43F0AF
:102B4000020384F8863031463620FFF787FB314692
:102B500084F88C002D20FFF781FB94F88C3018440A
:102B600084F88C00022138200EF0C4FD02213720A9
:102B70000EF0C0FDD5F8B821D5F8C01102F50070EF
:102B8000C4F8940040F2011001F50073A4F8980015
:102B90000020C4F8903004F19006044BC4F89C0067
:102BA00006E000BFCDCCCC3D5CA90100C0D4010043
:102BB000013BFDD191F8003292F8002203F00103AD
:102BC000D10748BF43F0020384F89A3031463820D9
:102BD000FFF744FB314684F8A0003720FFF73EFBA7
:102BE00094F8A030184484F8A00002212C200EF0A4
:102BF00081FD02212E200EF07DFDD5F87021D5F843
:102C0000601102F50070C4F8A80040F2011001F54F
:102C10000073A4F8AC000020C4F8A43004F1A406AA
:102C20006C4BC4F8B000013BFDD191F8003292F832
:102C3000002203F00103D20748BF43F0020384F8E7
:102C4000AE3031462C20FFF709FB314684F8B40042
:102C50002E20FFF703FB94F8B430184484F8B40036
:102C600002212B200EF046FD022132200EF042FD03
:102C7000D5F89021D5F8581102F50070C4F8BC00C1
:102C800040F2011001F50073A4F8C0000020C4F860
:102C9000B83004F1B8064F4BC4F8C400013BFDD175
:102CA00091F8003292F8002203F00103D00748BFE8
:102CB00043F0020384F8C23031462B20FFF7CEFAEE
:102CC000314684F8C8003220FFF7C8FA94F8C830BB
:102CD000184484F8C80002212A200EF00BFD0221BE
:102CE00033200EF007FDD5F89821D5F8501102F5E4
:102CF0000070C4F8D00040F2011001F50073A4F890
:102D0000D4000020C4F8CC3004F1CC06314BC4F818
:102D1000D800013BFDD191F8003292F8002203F077
:102D20000103D10748BF43F0020384F8D63031468F
:102D30002A20FFF793FA314684F8DC003320FFF7AE
:102D40008DFA94F8DC30184484F8DC0002211B2052
:102D50000EF0D0FC02211A200EF0CCFCD5F8D810D1
:102D6000D5F8D02001F50073C4F8E03002F5007307
:102D7000C4F8E43040F20113A4F8E8300023C4F8AA
:102D8000EC3004F1E006134B013BFDD191F8003229
:102D900092F8002203F00103D20748BF43F0020378
:102DA00084F8EA3031461B20FFF758FA314684F8A0
:102DB000F0001A20FFF752FA94F8F030184484F823
:102DC000F0003422002104F5947013F089FA2046B3
:102DD00070BD00BFC0D4010070B5234C9FED237AB5
:102DE000D4ED4D7ADFED226A224DD4F82C01224E2B
:102DF000F8EEE77A67EE877A87EEA67A85ED047AB1
:102E000011F0DAFF21F00043194613A3D3E90023A0
:102E100012F066F912F0FCFAD4ED4C7ADFED176A85
:102E2000B8EEE77AF7EE007AE7EE267A0346EB6132
:102E3000D4F83801C6ED047A11F0BEFF21F0004548
:102E400007A3D3E90023294612F04AF912F0E0FA69
:102E5000F06170BDAFF3008000000020AE67554008
:102E60000000006066E654400018FF1F333393C132
:102E700000002A44001CFF1F5C19FF1FB6F3FD3C35
:102E800038B5554C554D2DED088BD4E90223D4E9C6
:102E9000060111F043FE12F0BBFAD4E90A230AEE50
:102EA000100AD4E90E0111F039FE12F0B1FA08EE61
:102EB000900A4B49D5ED04AA91ED049A68EEA88AD0
:102EC000D4E90023D4E9040111F028FEEAEE0A8ACD
:102ED00012F09EFA79EE6ABA8446D4E90823EBEE42
:102EE000AB8AD4E90C0109EE90CA11F017FE12F07A
:102EF0008FFA3C4BF5EE408A93ED04AAF1EE10FAFE
:102F000008EE100A3AEECABA3FD428EE088AA9EEB3
:102F1000A98AABEE0B8AB5EE408AF1EE10FA41D4E5
:102F20007AEE497A17EE900A11F058FF9FED241BB4
:102F300041EC100B10F0DEFC23A3D3E9002351EC8D
:102F4000100B11F0A3FF39EE0A9A12F061FAF6EEB7
:102F5000007AD9EE27AA244B18601AEE900A11F0D5
:102F60003DFF9FED1B1B41EC100B10F0C3FC16A3A3
:102F7000D3E9002351EC100B11F088FF12F048FA4E
:102F8000BDEC088B194B186038BDB0EE680A10F024
:102F9000B3FCB0EE680A10F0AFFCB0EE680A10F0B7
:102FA000ABFCB2E7B0EE480A10F0A6FCB0EE480A5F
:102FB00010F0A2FCB0EE480A10F09EFCB0E700BF93
:102FC0000000000000004F400000006094A94C4049
:102FD00000000000000051406808FF1F001CFF1F98
:102FE000F819FF1FFC1AFF1F141EFF1F101EFF1FE2
:102FF000674B1B78313B052B23D8DFE803F02346D2
:103000006989A903634A644B6448D2F810C0C2F8C6
:1030100018C06349D3F810C0C3F818C0D2F88C2088
:10302000D3F88C30D0F810C0C0F818C00869D2F8B6
:1030300010C0886118695B49C2F818C098610623FE
:103040000B607047534A544B5448D2F810C0C2F832
:1030500018C05349D3F810C0D2F88C20C3F818C058
:10306000D3F88C30D0F810C0C0F818C00869D2F876
:1030700010C0886118694B49C2F818C098614A4B62
:103080000120002208601A707047424A424B4348B0
:10309000D2F810C0C2F818C04149D3F810C0D2F815
:1030A0008C20C3F818C0D3F88C30D0F810C0C0F80A
:1030B00018C00869D2F810C0886118693949C2F887
:1030C00018C09861384B0220002208601A707047BF
:1030D000304A314B3148D2F810C0C2F818C03049DC
:1030E000D3F810C0C3F818C0D2F88C20D3F88C30B5
:1030F000D0F810C0C0F818C00869D2F810C08861B4
:1031000018692849C2F818C0986103230B607047FA
:10311000204A214B2148D2F810C0C2F818C02049DB
:10312000D3F810C0C3F818C0D2F88C20D3F88C3074
:10313000D0F810C0C0F818C00869D2F810C0886173
:1031400018691849C2F818C0986104230B607047C9
:10315000104A114B1148D2F810C0C2F818C01049DB
:10316000D3F810C0C3F818C0D2F88C20D3F88C3034
:10317000D0F810C0C0F818C00869D2F810C0886133
:1031800018690849C2F818C0986105230B60704798
:103190005D1CFF1FF819FF1FFC1AFF1F001CFF1FFB
:1031A0005C19FF1F641DFF1FA41EFF1FF0B5B34C69
:1031B000B349B44FB44DB54E8BB001A80DF00EF924
:1031C00094ED060AF0EE087A30EE270A022104A8F0
:1031D0000DF090F904A907A80DF01EF92C2107A8FD
:1031E0000DF00AFA014601A80DF0F2F907A80DF05A
:1031F0002FF904A80DF02CF994ED070AA44C022134
:1032000004A80DF077F904A907A80DF005F92C2101
:1032100007A80DF0F1F9014601A80DF0D9F907A8AA
:103220000DF016F904A80DF013F997ED040A022128
:1032300004A80DF05FF904A907A80DF0EDF82C2102
:1032400007A80DF0D9F9014601A80DF0C1F907A8AA
:103250000DF0FEF804A80DF0FBF88E4B04A893EDDA
:10326000040A02210DF046F904A907A80DF0D4F8CC
:103270002C2107A80DF0C0F9014601A80DF0A8F90E
:1032800007A80DF0E5F804A80DF0E2F895ED040AA2
:10329000022104A80DF02EF904A907A80DF0BCF82E
:1032A0002C2107A80DF0A8F9014601A80DF090F90E
:1032B00007A80DF0CDF804A80DF0CAF896ED040AA1
:1032C000022104A80DF016F904A907A80DF0A4F82E
:1032D0002C2107A80DF090F9014601A80DF078F90E
:1032E00007A80DF0B5F804A80DF0B2F8214604A81F
:1032F0000DF074F804A907A80DF08EF82C2107A88A
:103300000DF07AF9014601A80DF062F907A80DF059
:103310009FF804A80DF09CF897ED140A022104A868
:103320000DF0E8F804A907A80DF076F82C2107A8FD
:103330000DF062F9014601A80DF04AF907A80DF059
:1033400087F804A80DF084F895ED140A022104A86A
:103350000DF0D0F804A907A80DF05EF82C2107A8FD
:103360000DF04AF9014601A80DF032F907A80DF059
:103370006FF804A80DF06CF896ED140A022104A869
:103380000DF0B8F804A907A80DF046F82C2107A8FD
:103390000DF032F9014601A80DF01AF907A80DF059
:1033A00057F804A80DF054F8214604A80DF016F8BB
:1033B00004A907A80DF030F82C2107A80DF01CF97E
:1033C000014601A80DF004F907A80DF041F804A882
:1033D0000DF03EF895ED160A04A802210DF08AF8CA
:1033E00004A907A80DF018F82C2107A80DF004F97E
:1033F000014601A80DF0ECF807A80DF029F804A883
:103400000DF026F8214604A80CF0E8FF04A907A84F
:103410000DF002F82C2107A80DF0EEF8014601A8E6
:103420000DF0D6F807A80DF013F804A80DF010F869
:10343000194B0A22196804A80DF046F804A907A838
:103440000CF0EAFF2C2107A80DF0D6F8014601A8E0
:103450000DF0BEF807A80CF0FBFF04A80CF0F8FF75
:1034600001A90E480CF03AFF02210D4810F05CF85B
:1034700001A80CF0EDFF0BB0F0BD00BFB819FF1FA5
:1034800074A301005C19FF1FFC1AFF1FF819FF1F2E
:1034900054A00100001CFF1F3808FF1F6C10FF1F05
:1034A00010A30100204B214A5969D3F88C0030B594
:1034B0001F4DD9631F4C5169D1636969E963616923
:1034C000E163D2F88C10D0F814C0C0F83CC0D1F839
:1034D00014C0C1F83CC0D2F858C0C2F85CC0D5F8DE
:1034E00018E0D3F858C0C3F85CC0D0F818C0C5F8CD
:1034F00020E0956915629A691A62A36923620E4BEE
:103500008A69C0F820C00A620020002103F180020D
:10351000C3E90001C3E90201C3E90401C3E90601EB
:1035200020339A42F4D130BDFC1AFF1FF819FF1F57
:10353000001CFF1F5C19FF1F901DFF1F08B53A4BB1
:103540003A4A1B780121712B116011D0613B192B74
:1035500013D8DFE803F0131212181D22272C1231A2
:1035600012121212121212363B4045124A124F54D6
:10357000BDE808402E4802F0C9BE08BDBDE80840BD
:103580002B4802F0EFBEBDE80840294802F096BF84
:10359000BDE80840264802F065BFBDE80840244861
:1035A00002F0E0BFBDE80840214803F003B8BDE8E1
:1035B00008401F4803F080B8BDE808401C4803F0ED
:1035C000A5B8BDE808401A4802F0A2BFBDE808400F
:1035D000174802F01BBFBDE80840154803F016B8B5
:1035E000BDE80840124803F0BBB8BDE808401048E9
:1035F00002F0E2BEBDE808400D4803F033B80C48C5
:1036000003F0D8F80B4B00210D20196259620EF01F
:1036100039F8002142200DF00FFEBDE808400021DE
:1036200043200DF009BE00BF5D1CFF1F3808FF1FBF
:10363000681DFF1F3C08FF1F38B5324B324A334824
:10364000334900251D70334B15701D70324B334AC2
:10365000057000241C60324B14601C60314A324BF0
:1036600014601C60314A324B14601C60314A324B8A
:1036700014601C60314A324B14601C60314A324B7A
:1036800014601C60314A324B14601C60314A324B6A
:1036900014601C60314A324B14601C60314A324B5A
:1036A000324814601C600CF041FF194930480CF09E
:1036B0003DFF304B30491D70304B314A1D70314B4E
:1036C0000D701D70304B15701D703049304A314BF4
:1036D0000D7015701D703049304A314B0D701570EA
:1036E0001D703049304A314B1560012008601C6064
:1036F0002F483049304A314B05600D6015601D6020
:1037000038BD00BF731CFF1F711CFF1F1C1EFF1F55
:1037100058A00100751CFF1F201DFF1FF41CFF1F78
:10372000BC1CFF1F781CFF1F241DFF1FE81EFF1F6E
:10373000F019FF1FF419FF1F501DFF1F541DFF1F1D
:10374000281FFF1F401FFF1FA81CFF1F341FFF1F44
:10375000441FFF1FAC1CFF1FEC1CFF1F2C1FFF1F73
:103760003C1FFF1FE81CFF1F241FFF1FC41EFF1F5D
:10377000B81EFF1FB11CFF1FB31CFF1F701CFF1FD3
:10378000B01CFF1F741CFF1FB21CFF1F721CFF1F09
:10379000A41EFF1FB41EFF1F761CFF1F301FFF1F3C
:1037A000381FFF1F3808FF1FA01EFF1F7C1CFF1FB4
:1037B000D81EFF1F181EFF1FD41EFF1FF01CFF1F67
:1037C0002DE9F04FB84ADFEDB97AD2ED006AB84B77
:1037D000B84A93ED007AB84BB84C2DED088BC6EE85
:1037E000A78A89B087EE278AD3ED026A93ED047A1F
:1037F000DFEDB37A78EEE68A38EE478AB0EEE87A03
:10380000B4EEE77AF1EE10FAC2ED008A84ED008A98
:1038100000F10581B0EE680A10F090F810EE100A81
:10382000F0EE40AA11F0DAFAB0EE680ACDE9000134
:1038300010F0BCF810EE100AB0EE40AA11F0CEFA6B
:1038400080468946DFED9E7AB0EEC87AB4EEE77A1C
:10385000F1EE10FA00F1CE80B0EE480A10F0A6F8B2
:10386000B0EE409AB0EE480A10F068F810EE100A78
:10387000F0EE409AB1EE40BA11F0B0FA044619EEFB
:10388000100A0D4611F0AAFA6AEEA97ACDE90401F0
:1038900017EE900A11F0A2FAF1EE49BA02460B4671
:1038A0009DED007B874E86ED007B6AEE097A9FEDE9
:1038B0007A9BCDE90623C6E90489834B039317EE6F
:1038C000900A86ED029B86ED069B11F087FA6AEE60
:1038D000AB7AC6E90801C6E90A4517EE900A11F06D
:1038E0007DFA6AEE0B7AC6E90C0186ED0E9B17EEA7
:1038F000900A11F073FADDE90623C6E91423734B2D
:1039000000229DED047BC6E91623714B002286ED53
:10391000127BC6E9100186ED189B86ED1A9B86ED99
:103920001C9BC6E91E2306F1200806F1080BDFF8F0
:10393000D091DDF80CA0FAE80245DDE900015E4611
:103940004F46F7E8082311F0A1FA02460B4620463D
:10395000294611F0E5F8B04504460D4602D0F6E8D8
:103960000201EEE75B4B09F108094B454AE90245C4
:10397000E1D1039B20330393574B08F1200898456E
:103980000BF1200B04D018ED087B8DED007BCEE70A
:10399000524A13680133B3F5C87F136052DA4A4FB5
:1039A0004F4D504E504CD7E9100111F031FDD7E981
:1039B0001423A861D7E9120111F0B2F84B4B002291
:1039C00011F064FA11F024FDB061D7E9160111F08D
:1039D0001FFDD5F88C30464AD4F88C10A0619A614E
:1039E000444B8A614FF07E529A6109B0BDEC088B5E
:1039F000BDE8F08FDFED407ADFED40BAC4ED007A2C
:103A0000B0EE678AB0EE679A9FED237BDDE9002375
:103A10008DED047B2E4DBFEE00BA002440E7DFEDB4
:103A2000367AB0EE67AAC2ED007A9FED1D7B4FF0AB
:103A300000088DED007B4FF00009F0EE4A8AF7EEAA
:103A400000AAFFE6DFED197A68EEA78AB1EE087AE0
:103A5000F4EEC78A4FF4C873F1EE10FA136051D533
:103A600068EE277AB0EE007AF0EEE77AF4EEC77AE5
:103A7000F1EE10FA46D51A4B1B4A186A986119499B
:103A80001C4B106A0C6A90611A698C619A6109B0CA
:103A9000BDEC088BBDE8F08F0000000000000000C6
:103AA000000000000000F03F101EFF1FA34C654205
:103AB000141EFF1FB41CFF1FB819FF1FB81CFF1FE7
:103AC0006F12833A201EFF1F901DFF1F000023402E
:103AD0000000F03F8808FF1FC01EFF1FD01EFF1F01
:103AE000F819FF1F001CFF1FFC1AFF1F0000E03F1A
:103AF000CDCCCC3D5C19FF1F000000000000008011
:103B00006808FF1F154F164D164E174CD7E91001C8
:103B100011F07EFCD7E91423A861D7E9120110F057
:103B2000FFFF124B002211F0B1F911F071FCB061EE
:103B3000D7E9160111F06CFCD5F88C30D4F88C1054
:103B40001A69A0619A610A4B08691A6988619A61C9
:103B500009B0BDEC088BBDE8F08F00BF901DFF1FC2
:103B6000F819FF1F001CFF1FFC1AFF1F0000E03F99
:103B70005C19FF1F00B585B00FF0A4FC00280FDD15
:103B800000230A22084901A80CF006FC002101A824
:103B90000CF042FD054B024601A81A700CF058FCCF
:103BA00005B05DF804FB00BF6C10FF1F5D1CFF1F1C
:103BB000F8B5AA4C2368022B0DD0092B2CD8DFE8CE
:103BC00013F03C002B002B00C900F8002201690112
:103BD00062008B004000A24B9FEDA21AD3ED040AB5
:103BE000A148B0EE410A02F087FBA04AA04BD2EDFB
:103BF000007A93ED147A9F4B77EEC77AB3EE047A8E
:103C0000F0EEE77AF4EEC77A4FF08042F1EE10FA68
:103C10009A6102DD03232360F8BD974A974BD2EDEA
:103C2000007AD3ED146A77EEE67AF0EEE77AF4EEF6
:103C3000C77AF1EE10FAEFDDECE7BDE8F840FFF7E8
:103C4000FBBC8F4A13680133C72B40F3528189496B
:103C5000C8230D691360824B8D61884E844DD3ED6E
:103C6000040A814896ED041A95ED040A02F044FB1B
:103C7000D6F88C20D5F88C30106919699061002233
:103C800099612260F8BDB0EE0C1A7748744D794FF7
:103C9000F0EE080AB0EE410A02F02EFB774B744AB0
:103CA00095ED047AD3F88C00D2F88C1006690D6972
:103CB000F1EE007AB4EEE77A4FF07E5CF1EE10FAA6
:103CC000C7F818C086618D61A6D5906D996D106694
:103CD000082525601966F8BDB0EE0C1A6248F0EEB2
:103CE000080AB0EE410A02F007FB644B614A93ED0B
:103CF000187AD3ED167A1169916177EEC77AB2EE30
:103D00000E7AF4EEC77AF1EE10FAC3ED197A00F1EB
:103D1000ED80574AD3F88C30D2F88C104FF07C529B
:103D20009A618A6193ED047AF7EE007AB4EEE77A4D
:103D3000F1EE10FA7FF570AF4D4BD3F88C3093ED68
:103D4000047AB4EEE77AF1EE10FA7FF565AF092355
:103D50002360F8BD494D464ED5F88C20494B936100
:103D6000D6F88C2095ED041A9361424B96ED040A27
:103D70003D484FF08042F3EE050A9A6102F0BCFA2A
:103D8000D5F88C30DFED407A93ED047AB4EEE77A23
:103D9000F1EE10FA7FF740AFD6F88C3093ED047A4D
:103DA000B4EEE77AF1EE10FA7FF736AF0423236022
:103DB000F8BDB0EE081A2C482E4DF3EE050AB0EE11
:103DC000410A02F099FA2D4B294A93ED047AD3F86F
:103DD0008C00D2F88C102B4BF1EE007AB4EEE77A1F
:103DE000F1EE10FAC5ED067A83618B617FF514AFB1
:103DF00092ED047AB4EEE77AF1EE10FA7FF50CAFAB
:103E000005232360F8BD164B1748D3ED040AB0EE26
:103E1000081AB0EE410A02F06FFA184A144BD2F8B1
:103E20008C20D3F88C1092ED047A184B11489361D2
:103E3000F2EE0B7AB4EEE77A8B61F1EE10FA144BE6
:103E400083617FF5E9AE91ED047AB4EEE77AF1EEA5
:103E500010FA7FF5E1AE06232360F8BD3808FF1F96
:103E6000001CFF1F0000A441681DFF1FF81AFF1F60
:103E7000F819FF1F5C19FF1FFC1BFF1FFC1AFF1F17
:103E8000F01CFF1F0000F0410000EC410000504119
:103E90000000C040194B1A4E1A4DD3ED040A1A48BF
:103EA00096ED041A95ED040A02F026FAD6F88C2055
:103EB000164B92ED047AD5F88C10F3EE0E7A4FF093
:103EC0007E50B4EEE77A9861F1EE10FA104B9361F0
:103ED0008B617FF7A1AE91ED047AB4EEE77AF1EE53
:103EE00010FA7FF799AE07232360F8BDD3F88C3022
:103EF00018E7064913600025ADE600BF001CFF1F50
:103F0000FC1AFF1FF819FF1F681DFF1F5C19FF1F18
:103F10000000F84170B5704B1B78732B68D0632B91
:103F20001AD0642B00F09980722B00F09F806B4CAC
:103F30006B4A1378D3B96B4B1B78002B50D1237885
:103F40002BB1694C2378002B5DD1FFF739FCBDE81C
:103F50007040664802F054BE604C6548604A65494E
:103F6000012300252570037013700B606249634DB7
:103F70000B680133C72B5FDC0B604FF08043604957
:103F8000AB61D1F88C305F4898615F4BD3F88C50AF
:103F900093ED047AA861F3EE037A5C485C4D886186
:103FA000B4EEE77A9861F1EE10FA4FF08240A86122
:103FB000C1DD91ED047AB4EEE77AF1EE10FABADDE4
:103FC0008D6D0D660D6D996D1966196D514B4948D2
:103FD0001D60514B1960434B01211970022303608E
:103FE0004E4B0020012110701970FFF7E1FDA6E78C
:103FF0003D483F49394C3F4A012303700020087077
:104000002370136094E7464A1368591C1329116002
:1040100016DDA3F1130113294ED9A3F127011329AA
:104020000ED9A3F13B01132952D94F3B132B07D9CA
:1040300000232370136088E7C8230B602B699EE779
:1040400000210D200DF01EFB2378002B3FF47DAFE7
:10405000BDE87040254802F0D3BD204C2449314AC8
:104060000123002020700B70137061E7214A2E4B52
:104070001A4C224DDFED2D0A1C48B0EE081A012122
:104080000026B0EE410A11604FF08042AA611E6026
:10409000267002F031F91C4B194AD3F88C10D2F873
:1040A0008C20184B8B61224893613146324602F0D6
:1040B000BBF8FFF7C1FA3BE71E4809210FF034FABD
:1040C0001D480CF031F901210D200DF0DBFABBE7A2
:1040D0001A480921F2E700BF5D1CFF1FA41EFF1F45
:1040E0001C1EFF1F731CFF1F5C1CFF1F681DFF1F92
:1040F000FC17FF1F3808FF1FF01CFF1F5C19FF1F74
:10410000F819FF1FCDCCCC3DFC1AFF1F0000A041C9
:10411000001CFF1FF81AFF1FFC1BFF1F711CFF1F55
:10412000181EFF1F741CFF1FD01EFF1F9A99993E77
:104130003C08FF1F5CA001006C10FF1F68A001007D
:104140001B4A9FED1C7AD2ED087A08B51A4B1B6802
:1041500077EE877A013BC2ED087A052B27D8DFE896
:1041600003F0080C11261503BDE80840134803F0BE
:104170005FB9BDE80840FFF7E1B9BDE808400F4866
:1041800002F0DEBEBDE80840FFF7C4BE0B4803F0F6
:104190006DF8002143200DF04FF8002143200DF071
:1041A0004BF8BDE80840002143200DF045B808BD9C
:1041B000B819FF1F0AD7A33B641DFF1F681DFF1F0F
:1041C00070B5274C274E284D204603F0A1FA27480A
:1041D00001F0DCFF304600F065FB284600F062FB92
:1041E000234800F05FFB234800F05CFB224801F00D
:1041F0006DF9224800F07EFBD6F88C0000F058FAEA
:10420000D5F88C0000F054FA04F10801304603F0B0
:10421000C1FA04F10801284603F0BCFA184CFEF775
:10422000DBFDD6F88C0000F067FAD5F88C0000F0C2
:1042300063FAFEF725FEFFF79DFCFEF7D9FEFFF7B8
:104240007FFF204602F0D0FA204602F0E7FAFEF7A0
:10425000ADFF05200DF0ACFABDE87040FFF722B9C4
:10426000141FFF1FFC1AFF1FF819FF1F3C08FF1F38
:104270005C19FF1F001CFF1FB819FF1F0018FF1F4C
:10428000681DFF1F10B5102104460CF0E1FC20460C
:1042900010BD00BF2DE9F047584E594D594B5A4CAF
:1042A0005A4FDFF8B081DFF8B091DFF8B0A186B0E7
:1042B00028224FF0FF31304601F090F92A46544948
:1042C000304610F021FC31465248534E01F0D6F8EA
:1042D0002046FEF7BFFA062307221421304600F0DD
:1042E000FDFA1E231D221521384600F0F7FA04F5C9
:1042F000AA7301930C23009304221823052140463E
:1043000000F0BAF904F58C73029304F5A273CDF8AA
:10431000008001930A220B231621484603F014FA69
:1043200004F5AC7301931C23DFF83481009303225E
:1043300019230221504600F09FF904F5A87304F5F3
:104340009E7402930194CDF800A0344C08230922F6
:104350001721404603F0F8F90494314C0394314C92
:1043600002943146304C314E019443463A46CDF8E2
:1043700000902F482F4C304FDFF8E88001F058FFB5
:104380002E4930460CF02AF830462D4E2A4621465A
:1043900010F0BAFB2B4930460CF020F82A46214693
:1043A000304610F0B1FB284E394640460CF016F866
:1043B0002A462146404610F0A7FB394630460CF00D
:1043C0000DF83046214E2A46214610F09DFB002173
:1043D00030460CF003F830461D4E2A46214610F0B8
:1043E00093FB002130460BF0F9FF2A462146304668
:1043F00006B0BDE8F04710F087BB00BF601CFF1F90
:104400003408FF1FE808FF1F0018FF1F5C19FF1F7B
:10441000D9040000B819FF1F001CFF1F3808FF1F38
:104420005D1CFF1FA41EFF1F141FFF1F581DFF1F31
:10443000681DFF1F5104010058A0010074A3010072
:10444000DC1EFF1F64A00100B81EFF1FA81EFF1F77
:10445000F017FF1F881AFF1FF819FF1F8C1BFF1F83
:10446000FC1AFF1FC41EFF1F38B52F4D2F4C2846C6
:1044700000F0B4F9D5F88C0003681B689847204613
:1044800000F0ACF9D4F88C0003681B689847284802
:1044900000F0A4F9274800F0A1F901211F200DF038
:1044A00029F9012120200DF025F901212F200DF0FF
:1044B00021F9012130200DF01DF901210E200DF010
:1044C00019F900210F200DF015F9002111200DF030
:1044D00011F9002110200DF00DF901210D200DF032
:1044E00009F900210D200DF0CDF8002142200CF03B
:1044F000A3FE002143200CF09FFE00211F200DF0A1
:10450000C1F8002120200DF0BDF800212F200DF072
:10451000B9F8002130200DF0B5F8BDE83840002191
:104520000E200DF0AFB800BFFC1AFF1FF819FF1FD7
:10453000001CFF1F5C19FF1F2DE9F843384D394C53
:104540002E68394FDFF82C9140F2EE280FF0F4F886
:104550002378002B57D03B78DB0754D52B68D9F84C
:1045600000209B1A0E2B4ED93048314C314D4FF460
:10457000E1310BF0EFFD30484FF416510BF072FDB6
:104580002E4B2F48C3F880502E4D2F4AE56642F639
:10459000E0642E49C4664FF4BE705967D96750670E
:1045A0002B492C4CC2F880104FF4B2709467D0673E
:1045B00043F66C329A67FFF757FF274800F078FF01
:1045C0004FF47A700DF0F4F82448012101F0DAF884
:1045D00028220021224811F083FE282200212148B0
:1045E00011F07EFE282200211F4811F079FE2822BA
:1045F00000211E4811F074FEBDE8F8431C48282233
:10460000002111F06DBE2B6822789B1B2AB1B3F5F7
:10461000FA6FA9D80FF090F898E74345FAD9A3E7C5
:104620009025FF1FA027FF1FC427FF1F700EFF1F2D
:104630008C1BFF1F9A991D425C0EFF1FF819FF1F6C
:10464000881AFF1F0DCFFFFFFC1AFF1F7AFEFFFF26
:1046500048E10D4294C4FFFFB819FF1F601CFF1F03
:10466000F81CFF1F801CFF1FEC1EFF1F281DFF1FD3
:10467000C01CFF1FC827FF1F38B514461D460A4639
:1046800023464FF0FF31044600F0B8F80599074B78
:10469000236000220023A166A2610499A56501227E
:1046A000E16523666366E266204638BD7CA00100B2
:1046B00010B5044690F858000DF00EF8206694F8F6
:1046C0005C000DF009F8606610BD00BF016E10B50A
:1046D000044611B9036B012B09D0636E0BB9216B32
:1046E00001B110BD207ABDE810400CF0A5BD007AE4
:1046F0000CF0A2FDF1E700BF836EDFED086AD3ED99
:10470000007A90ED1B7AF8EEE77AB8EEC77A67EE9A
:10471000A67AC7EE876AC0ED046A70473333094250
:10472000D0ED067A90ED047AD0ED086ADFF888C003
:10473000C0F840C037EE677AF4EE667A4FF07E53E9
:10474000F1EE10FA80ED057A436401D0137853B38B
:10475000D0ED135AD1ED006AD0ED0D7AB0EEC76AF4
:10476000E6EE867AD0ED0F6AC0ED0D7A37EE667A06
:10477000D1ED004AB0EEC77AC7EE246AB2EE0E5A07
:10478000B3EE047AA6EE057A90ED126AC0ED0E6AD9
:1047900077EE877AE6EE867AF0EEE77A67EEA57A2C
:1047A000C0ED0B7A7047DFED037AF0EE675AC0ED8B
:1047B000137ACFE7000000000000704110B50446F6
:1047C00000F00CF894F8580000210CF093FF94F8D6
:1047D0005C000021BDE810400CF08CBF10B5044611
:1047E0000121007B0CF086FF207A9FED030ABDE8D3
:1047F00010400CF0C1BE00BF00409C4682600F4AD2
:1048000082610022C36002630D4B0E4A4160026464
:1048100000214FF07E5283640B4B01614161C16105
:10482000016241628162C16241638163C16342642A
:10483000C164016541650360704700BF00004040EE
:10484000CDCC4C3F0000204188A00100D0ED0B7A78
:104850009FED127AF4EEC77AF1EE10FA10B5044625
:1048600008DCF5EEC07AF1EE10FA12D5DFED0C7A25
:10487000002102E0F0EE477AFF21207AC4ED0B7AA6
:104880000CF0DAFC94F83010207BBDE810400CF0FE
:10489000F9BEBDEEE77A17EE101AEEE700007F438F
:1048A0000000000010B504464068431C12D0C0B29E
:1048B0000BF096FF07EE100AD4ED147ADFED066ACE
:1048C000B8EEC77A37EE676A84ED157AE6EE267A97
:1048D000C4ED147A10BD00BF8FC2F53C10B504467C
:1048E000FFF78CFF024A22600023A365204610BD1B
:1048F00094A0010090F82830012B2DED028B40F29E
:10490000398172B6436A62B690F85020C0F8F83028
:10491000012A40F2548272B6C36C62B6027DC0F8BE
:10492000FC30012A40F2358272B6036962B690F813
:104930003C20C0F80031012A40F2118272B6836B2C
:1049400062B690F8F020C0F80431012A40F2EB8101
:1049500072B6D0F8EC3062B690F87820C0F8083122
:10496000012A40F2C68172B6436F62B690F8DC202D
:10497000C0F80C31012A40F2A08172B6D0F8D830CC
:1049800062B690F8C820C0F81031012A40F279814F
:1049900072B6D0F8C43062B690F86420C0F8143112
:1049A000012A40F2548172B6036E62B690F8A020DC
:1049B000C0F81831012A40F22E8172B6D0F89C302E
:1049C00062B690F88C20C0F81C31012A40F20881B0
:1049D00072B6D0F8883062B690F8B420C0F82031B2
:1049E000012A40F2E18072B6D0F8B02062B6D0F869
:1049F0002C11D0F8F830D0ED007AC0F824215B1AE1
:104A000007EE103AD0F8FC30B8EEC75A07EE101A8D
:104A1000D0F830115B1AF8EEC76A07EE103AD0F8FA
:104A20000031F8EEC75A07EE101AD0F834115B1AAD
:104A300006EE103AD0F80431B8EEC60A06EE101AA7
:104A4000D0F838115B1A04EE901AF8EEC62AD0F8A6
:104A50003C1106EE103AD0F808315B1AB8EEE43A91
:104A600004EE903AD0F81031F8EEE40A04EE901A11
:104A7000D0F844115B1AF8EEE43A04EE903AD0F81C
:104A80001831B8EEE41A04EE901AD0F84C115B1A03
:104A9000B8EEE44A04EE903AD0F81C31F8EEE41A8D
:104AA00004EE901AD0F850115B1AE7EE856A02EE18
:104AB000103A05EE101AD0F82031D0F854115B1AD4
:104AC00008EE103AD0F85831B8EEC66AB8EEC77A98
:104AD000D31AA7EEA57AE7EE802AA7EE863A05EE6E
:104AE000901A90ED566A00EE103AB8EEC88AF8EEC9
:104AF000E44AB8EEC22AB8EEC55AF8EEE55AB8EE66
:104B0000C00AB8EEC66AE7EE885AE7EEA03AA7EE0A
:104B1000814AE7EEA14AA7EE825AA7EE806AFDEE2F
:104B2000E22ABDEEC33AFDEEE33ABDEEC44AFDEE25
:104B3000E44ABDEEC55AFDEEE55ABDEEC66AFDEE8D
:104B4000E66ABDEEC77AC0ED4D2A80ED4E3AC0ED63
:104B50004F3A80ED514AC0ED534A80ED545AC0EDB2
:104B6000555A80ED566AC0ED4B6A80ED4C7ABDEC2B
:104B7000028B704772B6C169836990F820201B7858
:104B800091F800C090F821101CEA010F02EA03021C
:104B900000F0268390F8223003F003030AB143F0BB
:104BA000040343F0080322E372B6D0F8A810D0F84B
:104BB000A43090F8AC201B7891F800C090F8AD10AC
:104BC0001CEA010F02EA030200F0DC8290F8AE302A
:104BD00003F003030AB143F0040343F00803D8E2EF
:104BE00072B6D0F88010C36F90F884201B7891F8CB
:104BF00000C090F885101CEA010F02EA030200F0E1
:104C0000938290F8863003F003030AB143F0040363
:104C100043F008038FE272B6D0F89410D0F89030C9
:104C200090F898201B7891F800C090F899101CEA31
:104C3000010F02EA030200F0498290F89A3003F073
:104C400003030AB143F0040343F0080345E272B6DC
:104C5000816D436D90F85C201B7891F800C090F84E
:104C60005D101CEA010F02EA030200F0018290F8D5
:104C70005E3003F003030AB143F0040343F008037A
:104C8000FDE172B6D0F8BC10D0F8B83090F8C02072
:104C90001B7891F800C090F8C1101CEA010F02EADD
:104CA000030200F0B78190F8C23003F003030AB1A9
:104CB00043F0040343F00803B3E172B6D0F8D01018
:104CC000D0F8CC3090F8D4201B7891F800C090F840
:104CD000D5101CEA010F02EA030200F06D8190F882
:104CE000D63003F003030AB143F0040343F0080392
:104CF00069E172B6C16E836E90F870201B7891F8EE
:104D000000C090F871101CEA010F02EA030200F0E3
:104D1000258190F8723003F003030AB143F00403D5
:104D200043F0080321E172B6D0F8E410D0F8E03087
:104D300090F8E8201B7891F800C090F8E9101CEA80
:104D4000010F02EA030200F0DB8090F8EA3003F082
:104D500003030AB143F0040343F00803D7E072B63B
:104D6000016BC36A90F834201B7891F800C090F86A
:104D700035101CEA010F02EA030200F0938090F85C
:104D8000363003F003030AB143F0040343F0080391
:104D90008FE072B681684368027B1B7891F800C08F
:104DA000417B1CEA010F02EA03024FD0837B03F030
:104DB00003030AB143F0040343F008034CE072B666
:104DC000416C036C90F848201B7891F800C090F873
:104DD00049101CEA010F02EA030209D090F84A3098
:104DE00003F003030AB143F0040343F0080306E0B1
:104DF00090F84A3003F003030AB143F004039A0821
:104E0000013B80F84A200D2B3FF686AD01A252F8F7
:104E100023F000BF53530000495300007B530000B0
:104E2000495300001949000071530000535300001A
:104E3000535300007153000019490000495300000A
:104E40007B5300004953000053530000837B03F061
:104E500003030AB143F004039A08013B82730D2B4C
:104E60003FF663AD01A252F823F000BF3F530000AC
:104E70003553000067530000355300002B490000F4
:104E80005D5300003F5300003F5300005D5300009E
:104E90002B490000355300006753000035530000D4
:104EA0003F53000090F8363003F003030AB143F09B
:104EB00004039A08013B80F836200D2B3FF63FADE6
:104EC00001A252F823F000BF2B5300002153000031
:104ED000AB530000215300003F490000A1530000E4
:104EE0002B5300002B530000A15300003F4900004A
:104EF00021530000AB530000215300002B5300004E
:104F000090F8EA3003F003030AB143F004039A086F
:104F1000013B80F8EA200D2B3FF61BAD01A252F8B1
:104F200023F000BF1353000005530000935300000B
:104F3000055300005349000085530000135300003F
:104F4000135300008553000053490000055300002F
:104F500093530000055300001353000090F8723083
:104F600003F003030AB143F004039A08013B80F8FD
:104F700072200D2B3FF6F8AC01A252F823F000BFCF
:104F8000FB520000F1520000DB530000F152000020
:104F900069490000D1530000FB520000FB520000A1
:104FA000D153000069490000F1520000DB530000BA
:104FB000F1520000FB52000090F8D63003F00303DA
:104FC0000AB143F004039A08013B80F8D6200D2B68
:104FD0003FF6D4AC01A252F823F000BFE352000028
:104FE000D5520000C3530000D55200007D49000097
:104FF000B5530000E3520000E3520000B553000037
:105000007D490000D5520000C3530000D552000076
:10501000E352000090F8C23003F003030AB143F0FA
:1050200004039A08013B80F8C2200D2B3FF6B1AC77
:1050300001A252F823F000BFC7520000B95200008D
:1050400007540000B952000093490000F9530000D2
:10505000C7520000C7520000F953000093490000F6
:10506000B952000007540000B9520000C7520000B6
:1050700090F85E3003F003030AB143F004039A088A
:10508000013B80F85E200D2B3FF68EAC01A252F85A
:1050900023F000BFAF520000A5520000EF53000004
:1050A000A5520000A9490000E5530000AF520000DE
:1050B000AF520000E5530000A9490000A5520000CE
:1050C000EF530000A5520000AF52000090F89A3054
:1050D00003F003030AB143F004039A08013B80F88C
:1050E0009A200D2B3FF66AAC01A252F823F000BFC4
:1050F00097520000895200003F540000895200007E
:10510000BD49000031540000975200009752000042
:1051100031540000BD490000895200003F54000096
:10512000895200009752000090F8863003F0030384
:105130000AB143F004039A08013B80F886200D2B46
:105140003FF647AC01A252F823F000BF7B520000AB
:105150006D520000235400006D520000D34900003E
:10516000155400007B5200007B52000015540000D3
:10517000D34900006D520000235400006D5200001E
:105180007B52000090F8AE3003F003030AB143F005
:1051900004039A08013B80F8AE200D2B3FF624ACA7
:1051A00001A252F823F000BF5F52000051520000EC
:1051B0006F54000051520000E949000061540000A2
:1051C0005F5200005F52000061540000E949000096
:1051D000515200006F540000515200005F52000015
:1051E00090F8223003F003030AB143F004039A0855
:1051F000013B80F822200D2B3FF684AB01A252F830
:1052000023F000BF475200003D52000057540000F9
:105210003D520000054900004D5400004752000077
:10522000475200004D540000054900003D52000067
:10523000575400003D52000047520000436A013BB2
:105240004362FFF760BB436A01334362FFF75BBB16
:10525000D0F8B020013AC0F8B020FFF7C7BBD0F8B3
:10526000B0200132C0F8B020FFF7C0BBD0F88830C2
:10527000013BC0F88830FFF7AEBBD0F8883001336F
:10528000C0F88830FFF7A7BBD0F89C30013BC0F8CE
:105290009C30FFF795BBD0F89C300133C0F89C30B0
:1052A000FFF78EBB036E013B0366FFF77EBB036E09
:1052B00001330366FFF779BBD0F8C430013BC0F877
:1052C000C430FFF768BBD0F8C4300133C0F8C43035
:1052D000FFF761BBD0F8D830013BC0F8D830FFF7FA
:1052E0004FBBD0F8D8300133C0F8D830FFF748BBF7
:1052F000436F013B4367FFF738BB436F013343679D
:10530000FFF733BBD0F8EC30013BC0F8EC30FFF7CF
:1053100022BBD0F8EC300133C0F8EC30FFF71BBBF8
:10532000836B013B8363FFF70BBB836B01338363A9
:10533000FFF706BB0369013B0361FFF7F7BA036997
:1053400001330361FFF7F2BAC36C013BC364FFF79B
:10535000E4BAC36C0133C364FFF7DFBA0369023BED
:105360000361FFF7E3BA036902330361FFF7DEBAB3
:10537000C36C023BC364FFF7D0BAC36C0233C3648F
:10538000FFF7CBBAD0F8EC30023BC0F8EC30FFF7B7
:10539000E2BAD0F8EC300233C0F8EC30FFF7DBBAF9
:1053A000836B023B8363FFF7CBBA836B0233836368
:1053B000FFF7C6BAD0F8D830023BC0F8D830FFF7B4
:1053C000DFBAD0F8D8300233C0F8D830FFF7D8BAF7
:1053D000436F023B4367FFF7C8BA436F023343672B
:1053E000FFF7C3BA036E023B0366FFF7DEBA036E34
:1053F00002330366FFF7D9BAD0F8C430023BC0F8D5
:10540000C430FFF7C8BAD0F8C4300233C0F8C43093
:10541000FFF7C1BAD0F88830023BC0F88830FFF7F8
:10542000DABAD0F888300233C0F88830FFF7D3BA40
:10543000D0F89C30023BC0F89C30FFF7C1BAD0F8DE
:105440009C300233C0F89C30FFF7BABA436A023B83
:105450004362FFF758BA436A02334362FFF753BA15
:10546000D0F8B020023AC0F8B020FFF7BFBAD0F8A9
:10547000B0200232C0F8B020FFF7B8BADFF828C079
:10548000C0F820C00022DFF824C0026042608260C1
:10549000C260026142618261C2618262C0F824C05E
:1054A000C2620263416370476F12833A0AD7A33D19
:1054B00008B5406B0C2100F0A9F800B108BD024806
:1054C0003C210EF031F8FEE798A0010010B52DED5B
:1054D000028B04468CB0416B1A22684600F0A2F998
:1054E0000822616B06A800F09DF9DDE906010FF0C6
:1054F0008FFF0346A362DDE908010FF089FF034631
:10550000E362DDE90A010FF083FF002220634FF020
:105510008043DDE904010FF001FB1E4B00220FF078
:10552000FDFA0FF075FF08EE100A00221A4B84ED09
:10553000008ADDE902010FF0F3FA0FF069FF03467C
:10554000E360DDE9000108EE903A0FF061FFD4ED71
:10555000077A94ED067AD4ED096A606178EEE78AFD
:1055600038EE478AE6EEA87AA6EE887ADFED0B6A77
:1055700084ED067AB1EE675AC7EE265A85EE266AA2
:10558000C4ED077AC4ED025A84ED046A0CB0BDEC98
:10559000028B10BD000008400000F83FA34C65429C
:1055A000704700BF38B50C4605462022002104F1A3
:1055B000080010F095FE07490B22204610F028FF46
:1055C0000122E260A968044B216103226261236227
:1055D00038BD00BFD8A001000AD7233C30B504462F
:1055E0000948206083B000206060A1601020019213
:1055F00000930BF02BFB009A0199054600F0D0F9BF
:105600002046656003B030BDE8A001002DE9F041FF
:10561000064684B040680F46002100F0CBF95525BE
:1056200004E00CF0C5F8013D00F0A780706801218E
:1056300000F0C0F904460A20002CF2D04FF0000818
:10564000012503ABCDF804800095194670688DF8EC
:105650000C802A4600F03AFA9DF80C30A02B12D0AC
:105660004FF47A700CF0A4F803ABCDF804800095E9
:10567000194670688DF80C802A4600F027FA9DF8CC
:105680000C30A02B79D100253573019500954FF092
:105690003D0C0123022203A97068ADF80CC000F094
:1056A000A5F91E200CF084F80195009542F23F0CFC
:1056B0000123022203A97068ADF80CC000F096F92E
:1056C0001E200CF075F84FF0010801E00CF070F8A6
:1056D00003AB7068019519460122CDF800808DF862
:1056E0000C5000F0F3F99DF80C30A02B4FF00A009D
:1056F000ECD132200CF05CF8019500954FF03E0C97
:1057000003A9012302227068ADF80CC000F06EF905
:105710000A200CF04DF801950095072303A9ADF878
:105720000C3070680123022200F060F901950095A9
:105730004FF03F0C03A9012302227068ADF80CC0A2
:1057400000F054F90A200CF033F87068377303A99D
:1057500001230222019500953D258DF80D708DF8ED
:105760000C5000F043F91E200CF022F814200CF02D
:105770001FF8204604B0BDE8F0810024204604B0A4
:10578000BDE8F081F0B585B00025077B0573019574
:105790000095012302224FF03D0C04460E4640685E
:1057A000ADF80CC003A900F021F91E200CF000F8A0
:1057B00019200BF0FDFF072301950095ADF80C3083
:1057C00060680123022203A900F010F936B348F201
:1057D0003F020195009503A90123ADF80C206068F4
:1057E000022200F003F90A200BF0E2FF00222773E7
:1057F00060680192012303A900923D2402228DF8E2
:105800000C408DF80D7000F0F1F81E200BF0D0FF69
:10581000142005B0BDE8F0400BF0CABF3F2201964E
:105820000096D8E7F0B50E4687B01446002118223E
:10583000054610F055FD0023706804930193ADF800
:10584000143006238DF80C400093012204AB03A909
:10585000083C00F03BF9BDF91000BDF91270BDF92C
:105860001460262C33D8DFE804F01432323232329E
:1058700035323232323235323232323235323232FF
:105880003232323232323232323214323232323216
:1058900014000FF091FA204B00220FF021FC024679
:1058A0000B46C5E9002338460FF086FA1A4B002252
:1058B0000FF016FC02460B46C5E9022330460FF0F6
:1058C0007BFA154B00220FF00BFCC5E904012846BA
:1058D00007B0F0BD0FF070FA104B00220FF0D6FAAF
:1058E00002460B46C5E9002338460FF065FA0B4B1C
:1058F00000220FF0CBFA02460B46C5E902233046E0
:105900000FF05AFA054B00220FF0C0FAC5E9040166
:10591000284607B0F0BD00BF000059400000B03F6E
:1059200030B50C4689B0054620220021201D10F01C
:10593000D7FC2422114B22601B680193AA68019BAB
:105940002361032029466260A0601A2202A8FFF7A3
:1059500069FFDDE902010FF05BFD03466361DDE9EC
:1059600004010FF055FD0346A361DDE906010FF0C8
:105970004FFD03460120E36109B030BD9025FF1FB4
:1059800090F8A03090F8A1209A4205D95A1C0344FF
:1059900080F8A020187E70474FF0FF30704700BF9E
:1059A0004FF0000C42602022017080F808C0C260F5
:1059B000704700BF38B5044640680D4600F008F94E
:1059C000012323720DB9184638BD217862689940C9
:1059D00082F8A31082F82E3182F82D3160681946C2
:1059E00000F04AFAB0FA80F0400938BD2DE9F041E4
:1059F000DDF81C801F46C368154642449A4218D8F9
:105A000002784368520083F8A320012204460E4620
:105A100083F82E2183F82D21B8F1000F0CD0069BBE
:105A200053B140680699036842465B6898478045D1
:105A300002D00020BDE8F0816068036831465B68F1
:105A40002A4698478542F4D16068394600F014FA36
:105A5000B0FA80F04009BDE8F08100BF2DE9F843BD
:105A600015460646D2B20F460178406800F07AFA31
:105A7000854224D105B30024DFF84C90A04613E002
:105A800090F8A0C090F8A12062450CF10101844477
:105A900018D980F8A0109CF8183007F808300134A5
:105AA000A4B2A542A04607D97068026852694A4567
:105AB000E6D09047C3B2F0E70120BDE8F8830020AC
:105AC000BDE8F883FF23E8E7815900002DE9F041A4
:105AD0001F46C368069E9DF81C809A4211D8054651
